:1000000000800020690200009502000095020000B7
:100010009502000095020000950200009502000084
:100020009502000095020000950200009502000074
:100030009502000095020000950200009502000064
:100040009502000095020000950200009502000054
:100050009502000095020000950200009502000044
:100060009502000095020000950200009502000034
:100070009502000095020000950200009502000024
:100080009502000095020000950200009502000014
:100090009502000095020000950200009502000004
:1000A00095020000950200009502000095020000F4
:1000B00095020000950200009502000095020000E4
:1000C00095020000950200009502000095020000D4
:1000D00095020000950200009502000095020000C4
:1000E00010B5054C237833B9044B13B10448AFF372
:1000F00000800123237010BD740000200000000068
:100100007810000008B5034B1BB103490348AFF357
:10011000008008BD0000000078000020781000007A
:10012000154B002B08BF134B9D46A3F5803A0021C9
:100130008B460F461348144A121A00F073FE0F4BF9
:10014000002B00D098470E4B002B00D09847002082
:10015000002104000D000D48002802D00C48AFF328
:10016000008000F03BFE2000290000F0DDFD00F0E3
:1001700021FE00BF000008000080002000000000F9
:10018000000000007400002090000020000000002B
:10019000000000002A4938B510240A46486C294B53
:1001A00040F400504864D3F8200140F00400C3F844
:1001B0002001D3F8200120F44070C3F82001D3F8C7
:1001C000B80020F47060C3F8B800D3F8B80040F469
:1001D0008060C3F8B8000C62D36A9B06FCD51A4B4A
:1001E0001A491A681A4C42F001021A60DA68194872
:1001F00042F08072DA600C6000F054FA02254FF091
:1002000060424FF4807400F5D52000F2FC401249A2
:10021000C308A1FB0313114811499B0A013B0B6161
:10022000C1F8F050C1F80443C2F8B00F01200D4BE3
:10023000C2F8803ED2F8003E0343C2F8003E38BD0B
:1002400000800C4000600040F0ED00E0001000E095
:10025000FF13014006000E001791650255CEACC594
:10026000000004E009000100064880470649074AEB
:10027000074B9A42BEBF51F8040B42F8040BF8E753
:10028000FFF74EFF850300008410000000000020EF
:1002900074000020FEE700BF264AD36A03F47053BF
:1002A000B3F5805F24D0B3F5005F1ED0B3F5006FC7
:1002B00011D0D36803F4E063B3F5007F37D01AD9C7
:1002C000B3F5806F31D0B3F5A06F2CD0B3F5407F7C
:1002D0001ED0002001E0184B1868164B1B68C3F3B2
:1002E00082330133B0FBF3F07047144B1868F4E726
:1002F0004FF40040F1E76BB1B3F5807FE9D1104BCB
:100300001048DA6C104BB2F1985F38BF1846E4E73A
:100310000E48E2E70A4B0E48DA6C0E4BB2F1985FDA
:1003200038BF1846D9E70C48D7E70C48D5E70C4842
:10033000D3E700BF00800C4004000020080000202C
:10034000B081E00F40B56400C0CF6A00809FD50047
:10035000804F120040420F00003FAB01406F400150
:10036000C0D8A70008B5FFF797FF044B044A5B68A5
:1003700003F00F03D840106008BD00BF00800C40A0
:1003800000000020014A024B9A6070470000000004
:1003900000ED00E04FF40040704700BF4FF47A706A
:1003A000704700BF014B1868704700BF080000206D
:1003B000FEE700BF08B5134BDB6CC3F307434A2BC2
:1003C0000CD0792B0AD0482B06D040F6E1110E480C
:1003D000FFF7EEFF002008BD0C4808BD0C490D4892
:1003E0000B698A69C9691B02C1F3031103F47C53C9
:1003F0000B4302F0F00205491343B3F5017F38BF08
:10040000084608BDB081E00F500E00000048E8012A
:10041000D0FF0FE000366E0110B50446FFF7CAFFAB
:10042000A0420AD300210846094B0A4A18605368C3
:1004300023F480730B43536010BDFFF7BBFFB4EB95
:10044000400F8CBF4FF400714FF480710120EBE737
:100450007800904300800C4008B51B4B5B6903F4A7
:10046000E063B3F5007F25D00FD9B3F5C06F12D08C
:10047000B3F5E06F1CD0B3F5407F0ED04FF426618A
:100480001248FFF795FF002008BD7BB1B3F5807FD0
:10049000F4D10F4808BD0F4808BD0F4B0F48DA6C68
:1004A0000F4BB2F1985F38BF184608BD0D4808BD24
:1004B0000D4808BD084B0D48DA6C0D4BB2F1985F42
:1004C00038BF184608BD00BF00800C40500E000029
:1004D000C0D8A700003FAB01B081E00F804F1200F1
:1004E00040420F00809FD500406F400140B564003E
:1004F000C0CF6A0000F00F00013808B5062852D8B6
:10050000DFE800F014402451513504002D4BDB6A24
:1005100003F46033B3F5803F4ED0B3F5003F49D0CC
:10052000B3F5004F0CBF0920012008BD254BDB6A45
:1005300003F47053B3F5805F3CD0B3F5005F3BD05C
:10054000B3F5006F0CBF0420052008BD1D4A936A57
:1005500003F00C03082B2FD00C2B2FD0042B29D009
:10056000936A13F4801F0CBF01200A2008BD154BAD
:100570001B6813F0805323D0B3F1805F0CBF0920B8
:10058000012008BD0F4B986A00F003000228CCD070
:10059000032813D001280DD09B6A13F4803F0CBFB1
:1005A00001200A2008BD41F20A610748FFF700FF59
:1005B000002008BD032008BD022008BD062008BD9C
:1005C000072008BD00800C40500E000038B5304BAD
:1005D0000446984202D02F4B984221D12046FFF783
:1005E00089FF2B4B05469C4226D02A4B9C420CD1BE
:1005F000294A936AC3F38103022B35D0032B2CD0F5
:10060000012B35D0926A142322E040F6D2412348D0
:10061000FFF7CEFE032D2FD8DFE805F01D2A261F99
:1006200040F6A3411D48FFF7C3FE2046FFF762FFD7
:10063000174B05469C42D8D1174A936A03F003032F
:10064000022B11D0032B08D0012B11D01023926A5A
:1006500032FA03F317D1002038BDFFF783FE104BA9
:100660001B680133D84038BDBDE83840FFF79ABE5B
:10067000BDE83840FFF78EBE084840F6FD41FFF761
:1006800097FE0020E8E7BDE83840FFF787BE00BFCF
:1006900002001C0003001E0000800C40500E0000F1
:1006A0007800904300F47810B0F5C01F08B500F052
:1006B000848013D8B0F5602F71D026D8B0F5003FF4
:1006C00060D0B0F5802F00F09E8000285ED041F20F
:1006D00018215548FFF76CFE002008BDB0F5101F2B
:1006E00000F086801ED8B0F5E01F46D0B0F5F01FB0
:1006F00050D0B0F5D01FEAD14C48FFF767FF4C4B04
:100700001B6FC3F30113D84008BDB0F5901F1CD078
:10071000B0F5B01F5AD0B0F5801FD8D1BDE8084061
:10072000FFF79ABEB0F5281F18D0B0F5301F56D08D
:10073000B0F5201FCBD13F48FFF748FF3C4B9B6EE5
:10074000C3F301330433D84008BD3A48FFF73EFFF6
:10075000374B9B6EC3F30313D84008BD3548FFF7F2
:1007600035FF334A936ED26FC3F3013302F00702B1
:10077000D8400132B0FBF2F008BD2E48BDE8084079
:10078000FFF724BFBDE80840FFF7ECBDBDE8084017
:10079000FFF782BD2548BDE80840FFF717BF264890
:1007A000FFF7A8FE0728B9D00928EFD040F69A2114
:1007B0001D48FFF7FDFD002008BD1C48FFF706FFA0
:1007C0001B4B1B6F03F00303D84008BD1948FFF70C
:1007D000FDFE174B9B6EC3F30323D84008BD15489D
:1007E000FFF7F4FE124B9B6E03F00303D84008BDE5
:1007F0001248FFF77FFE03280DD00928C6D0022833
:100800000DD0002008BDFFF747FD094B9B6803F0A2
:100810000F03D84008BDBDE80840FFF7BBBDBDE8E9
:100820000840FFF7BFBD00BF500E000003001E00D0
:1008300000800C4002001C0006000E00072324006C
:1008400030B5C0F30323013B83B00446092B46D8DF
:10085000DFE803F03D2819454505304545350125BC
:10086000C0F304342248234B5A6DD20704D5044404
:10087000A400216003B030BD1A6D2A42F7D01A6D72
:100880002A42F9D1F3E71C480191FFF70BFFFFF76C
:10089000C3FD1A48C4F3043401990444A400216040
:1008A00003B030BDC0F3043415480444A4002160F3
:1008B00003B030BDC0F3043410251248D3E7C0F3B1
:1008C000043411480444A400216003B030BDC0F3D7
:1008D00004340E480444A400216003B030BD41F24A
:1008E0000B110B4803B0BDE83040FFF761BD00BFFE
:1008F000C002E41000800C40004302000002E4103B
:100900002002E4100003E410C003E4104000E410EF
:10091000500E000004282DE9F04105460E4617460A
:10092000984632D9052800F0B2804FF48A715948B0
:10093000FFF73EFD87BBEC00072E43D80F2063195D
:100940009B0003F1804303F5C0435A68B10088401F
:1009500022EA000207FA01F10A435A609FB9B8F18E
:10096000000F55D1042D7ED84FF6FF733341DB07BE
:1009700061D501232C44A40004F1804404F5C04453
:1009800003FA06F66661BDE8F0814FF6FF73334166
:10099000DC07CAD5002FCED0B8F1000F26D0042D29
:1009A0006BD84FF6FF733341D80750D50122EC00C6
:1009B00063199B0003F1804303F5C043B240072E47
:1009C0001A61BBD90F226119890001F1804106F13A
:1009D000804001F5C04108388B688000824023EADE
:1009E000020307FA00F018438860B7E7042D3FD8E8
:1009F0004FF6FF733341D90723D50122EC00631969
:100A00009B0003F1804303F5C043B2405A6193E772
:100A1000042D37D84FF6FF733341DA071DD5012374
:100A20002C44A40004F1804404F5C04403FA06F603
:100A30002661BDE8F08140F2C2311748FFF7B8FCEB
:100A400097E740F2C2311448FFF7B2FCD5E740F215
:100A5000F1311148FFF7ACFCA8E740F2F1310E4844
:100A6000FFF7A6FCDBE7052DE5D141F6FF737DE737
:100A7000052DE6D141F6FF73BCE7052DE7D141F620
:100A8000FF7390E7052DE8D141F6FF73C4E741F607
:100A9000FF737CE7B40E0000180F0000002A38D066
:100AA000F8B51446026803F0030622F440720260AF
:100AB0000368054623F4407343EA06230F460360A8
:100AC00061B32B689A071ED5032E2FD14FF4AE7158
:100AD0002548FFF76DFC254B9B5D04FB03F383B3B7
:100AE0006FEA84041C443C44B4FBF3F4013C2FD46F
:100AF000B4F5007F31D22B689B0702D5002C08BFCC
:100B000001242C61F8BD032EE0D0194B53F8263098
:100B10000FE040F211111448FFF74ABC1548FFF7E7
:100B2000C1FD2B6807469A07EDD5CDE7124B53F868
:100B300026309F42CAD90D4B9B5D04FB03F3002B6B
:100B4000CED1BDE8F84040F26D110748FFF730BC48
:100B500040F273110448FFF72BFC4FF4BA710248BE
:100B6000FFF726FCC7E700BF940F0000F80F000056
:100B7000880F0000408104007C0F000038B5094B4D
:100B8000044698420D4608D003F58063984204D08D
:100B900040F28D110448FFF70BFC04F1047464016A
:100BA000256038BD00A00040940F000038B5124BFE
:100BB000044698420D4608D003F58063984204D05D
:100BC0004FF4D1710D48FFF7F3FB00206A78630101
:100BD0000B4903F1844382F00102606321635A6090
:100BE000D5E9011220462B7BFFF758FF29782046D4
:100BF000BDE83840FFF7C2BF00A00040940F0000DE
:100C0000FFFF010010B50446B0B10E4A53691169E7
:100C10009B0003F03C03C1F381110B43A3701369E4
:100C200003F03F0363709369D26903F0F003C2F3EA
:100C300003121343237010BD45210348FFF7B8FB8F
:100C4000E3E700BFD0FF0FE0FC0F0000F0B501218B
:100C500085B01E48FFF7F4FD01211D48FFF7F0FDA8
:100C60000021012308460A22FFF754FE01236D46A6
:100C700001240027174E19460A220020FFF74AFEDA
:100C8000B26B154B42F00302B2630FCB85E80F0045
:100C9000304629468DF801408DF80070FFF786FF39
:100CA000092302200D4A013B54615061FBD1094BDD
:100CB00001219A68D20744BFE0225A60054B9A6A24
:100CC00018461A63FFF75AFF05B0F0BD00B20400E2
:100CD00000D2040000A0004064100000006000404A
:100CE000104B01211A46884058625960936A590690
:100CF000FCD50120136B0B4943F040031363506292
:100D00008B6A5A06FCD540200323064A08634B62CF
:100D1000936A5B06FCD50221136B43F04003136317
:100D20005160704700A00040012100B51A4A1B4BDA
:100D3000116483B0DC6C01A8FFF764FFB4F1805F3D
:100D40000AD39DF80430022B06D9154A136823F004
:100D5000500343F010031360FFF71CFA1148FFF72C
:100D6000A1FC114AA2FB00239B09013BB3F1807F48
:100D700000D3FEE700200721E0250C4A0C4C53600D
:100D800084F8235090601160FFF760FF0121552027
:100D9000FFF7A6FFFEE700BF00000C40B081E00FA8
:100DA000C0800C4070000200D34D621010E000E0E3
:100DB00000ED00E008B5074B044613B10021AFF386
:100DC0000080054B1868836A03B19847204600F0FD
:100DD00031F800BF000000007410000070B500255D
:100DE0000C4E0D4CA41BA410A54209D100F024F810
:100DF00000250A4E0A4CA41BA410A54205D170BDC3
:100E000056F8253098470135EEE756F825309847D3
:100E10000135F2E76C0000206C0000206C0000201F
:100E20007000002003460244934200D1704703F84B
:100E3000011BF9E7FEE700BFF8B500BFF8BC08BC2E
:100E40009E467047F8B500BFF8BC08BC9E46704788
:100E5000433A2F53696C69636F6E4C6162732F5311
:100E6000696D706C696369747953747564696F2F07
:100E700076342F646576656C6F7065722F73646B62
:100E8000732F6765636B6F5F73646B5F73756974F2
:100E9000652F76322E342F706C6174666F726D2FF1
:100EA000656D6C69622F7372632F656D5F636D751D
:100EB0002E630000433A2F53696C69636F6E4C6177
:100EC00062732F53696D706C6963697479537475BB
:100ED00064696F2F76342F646576656C6F70657208
:100EE0002F73646B732F6765636B6F5F73646B5FE6
:100EF00073756974652F76322E342F706C61746649
:100F00006F726D2F656D6C69622F7372632F656DE3
:100F10005F6770696F2E6300633A5C73696C696325
:100F20006F6E6C6162735C73696D706C6963697418
:100F30007973747564696F5C76345C646576656C2E
:100F40006F7065725C73646B735C6765636B6F5F16
:100F500073646B5F73756974655C76322E345C7094
:100F60006C6174666F726D5C656D6C69625C696EF4
:100F7000635C656D5F6770696F2E680040164000A6
:100F8000C0D8A7008050740180841E00405489009E
:100F9000002D3101433A2F53696C69636F6E4C61C8
:100FA00062732F53696D706C6963697479537475DA
:100FB00064696F2F76342F646576656C6F70657227
:100FC0002F73646B732F6765636B6F5F73646B5F05
:100FD00073756974652F76322E342F706C61746668
:100FE0006F726D2F656D6C69622F7372632F656D03
:100FF0005F6932632E63000008091108433A2F53DA
:10100000696C69636F6E4C6162732F53696D706CAC
:10101000696369747953747564696F2F76342F64CA
:101020006576656C6F7065722F73646B732F67657F
:10103000636B6F5F73646B5F73756974652F763272
:101040002E342F706C6174666F726D2F656D6C69D4
:10105000622F7372632F656D5F73797374656D2E84
:101060006300000001010000000000006067010053
:0C107000000000000C0000200000000048
:08107C00A4F0FF7F0100000059
:10108400809FD500006CDC0200800000000000009E
:10109400000000000000000000000000000000004C
:1010A400000000000000000000000000000000003C
:1010B400000000000000000000000000000000002C
:1010C400000000000000000000000000000000001C
:1010D400000000000000000000000000000000000C
:1010E40000000000000000000000000005010000F6
:0410F400E100000017
:04000003000002698E
:00000001FF
